{
  "contractName": "Exchange",
  "abi": [
    {
      "inputs": [],
      "payable": false,
      "stateMutability": "nonpayable",
      "type": "constructor"
    },
    {
      "anonymous": false,
      "inputs": [
        {
          "indexed": true,
          "internalType": "address",
          "name": "_from",
          "type": "address"
        },
        {
          "indexed": true,
          "internalType": "uint256",
          "name": "_amt",
          "type": "uint256"
        }
      ],
      "name": "Sale",
      "type": "event"
    },
    {
      "constant": true,
      "inputs": [],
      "name": "admin",
      "outputs": [
        {
          "internalType": "address",
          "name": "",
          "type": "address"
        }
      ],
      "payable": false,
      "stateMutability": "view",
      "type": "function"
    },
    {
      "constant": true,
      "inputs": [
        {
          "internalType": "address",
          "name": "",
          "type": "address"
        }
      ],
      "name": "balanceOf",
      "outputs": [
        {
          "internalType": "uint256",
          "name": "",
          "type": "uint256"
        }
      ],
      "payable": false,
      "stateMutability": "view",
      "type": "function"
    },
    {
      "constant": true,
      "inputs": [
        {
          "internalType": "address",
          "name": "",
          "type": "address"
        },
        {
          "internalType": "address",
          "name": "",
          "type": "address"
        }
      ],
      "name": "transaction",
      "outputs": [
        {
          "internalType": "uint256",
          "name": "",
          "type": "uint256"
        }
      ],
      "payable": false,
      "stateMutability": "view",
      "type": "function"
    },
    {
      "constant": true,
      "inputs": [
        {
          "internalType": "address",
          "name": "",
          "type": "address"
        }
      ],
      "name": "upForSale",
      "outputs": [
        {
          "internalType": "uint256",
          "name": "",
          "type": "uint256"
        }
      ],
      "payable": false,
      "stateMutability": "view",
      "type": "function"
    },
    {
      "constant": false,
      "inputs": [
        {
          "internalType": "uint256",
          "name": "_amt",
          "type": "uint256"
        }
      ],
      "name": "deposit",
      "outputs": [
        {
          "internalType": "bool",
          "name": "",
          "type": "bool"
        }
      ],
      "payable": true,
      "stateMutability": "payable",
      "type": "function"
    },
    {
      "constant": false,
      "inputs": [
        {
          "internalType": "uint256",
          "name": "_amt",
          "type": "uint256"
        }
      ],
      "name": "forSale",
      "outputs": [
        {
          "internalType": "bool",
          "name": "",
          "type": "bool"
        }
      ],
      "payable": true,
      "stateMutability": "payable",
      "type": "function"
    },
    {
      "constant": false,
      "inputs": [
        {
          "internalType": "address",
          "name": "_owner",
          "type": "address"
        }
      ],
      "name": "buy",
      "outputs": [
        {
          "internalType": "bool",
          "name": "",
          "type": "bool"
        }
      ],
      "payable": true,
      "stateMutability": "payable",
      "type": "function"
    },
    {
      "constant": false,
      "inputs": [
        {
          "internalType": "address",
          "name": "_buyer",
          "type": "address"
        }
      ],
      "name": "release",
      "outputs": [
        {
          "internalType": "bool",
          "name": "",
          "type": "bool"
        }
      ],
      "payable": false,
      "stateMutability": "nonpayable",
      "type": "function"
    },
    {
      "constant": false,
      "inputs": [
        {
          "internalType": "address",
          "name": "_owner",
          "type": "address"
        },
        {
          "internalType": "address",
          "name": "_buyer",
          "type": "address"
        },
        {
          "internalType": "bool",
          "name": "status",
          "type": "bool"
        }
      ],
      "name": "resolveConflict",
      "outputs": [
        {
          "internalType": "bool",
          "name": "",
          "type": "bool"
        }
      ],
      "payable": false,
      "stateMutability": "nonpayable",
      "type": "function"
    },
    {
      "constant": true,
      "inputs": [
        {
          "internalType": "address",
          "name": "_owner",
          "type": "address"
        }
      ],
      "name": "myBalance",
      "outputs": [
        {
          "internalType": "uint256",
          "name": "",
          "type": "uint256"
        },
        {
          "internalType": "uint256",
          "name": "",
          "type": "uint256"
        }
      ],
      "payable": false,
      "stateMutability": "view",
      "type": "function"
    }
  ],
  "bytecode": "0x608060405234801561001057600080fd5b5033600360006101000a81548173ffffffffffffffffffffffffffffffffffffffff021916908373ffffffffffffffffffffffffffffffffffffffff1602179055506111b3806100616000396000f3fe6080604052600436106100915760003560e01c806382762bf61161005957806382762bf6146102ab578063b6b55f2514610310578063c2f3ef6e14610356578063f088d547146103db578063f851a4401461043757610091565b806319165587146100965780631c1c0032146100ff5780632831f2f41461019457806370a08231146101da578063817a5e141461023f575b600080fd5b3480156100a257600080fd5b506100e5600480360360208110156100b957600080fd5b81019080803573ffffffffffffffffffffffffffffffffffffffff16906020019092919050505061048e565b604051808215151515815260200191505060405180910390f35b34801561010b57600080fd5b5061017a6004803603606081101561012257600080fd5b81019080803573ffffffffffffffffffffffffffffffffffffffff169060200190929190803573ffffffffffffffffffffffffffffffffffffffff1690602001909291908035151590602001909291905050506106d4565b604051808215151515815260200191505060405180910390f35b6101c0600480360360208110156101aa57600080fd5b8101908080359060200190929190505050610a45565b604051808215151515815260200191505060405180910390f35b3480156101e657600080fd5b50610229600480360360208110156101fd57600080fd5b81019080803573ffffffffffffffffffffffffffffffffffffffff169060200190929190505050610c16565b6040518082815260200191505060405180910390f35b34801561024b57600080fd5b5061028e6004803603602081101561026257600080fd5b81019080803573ffffffffffffffffffffffffffffffffffffffff169060200190929190505050610c2e565b604051808381526020018281526020019250505060405180910390f35b3480156102b757600080fd5b506102fa600480360360208110156102ce57600080fd5b81019080803573ffffffffffffffffffffffffffffffffffffffff169060200190929190505050610cb9565b6040518082815260200191505060405180910390f35b61033c6004803603602081101561032657600080fd5b8101908080359060200190929190505050610cd1565b604051808215151515815260200191505060405180910390f35b34801561036257600080fd5b506103c56004803603604081101561037957600080fd5b81019080803573ffffffffffffffffffffffffffffffffffffffff169060200190929190803573ffffffffffffffffffffffffffffffffffffffff169060200190929190505050610d9d565b6040518082815260200191505060405180910390f35b61041d600480360360208110156103f157600080fd5b81019080803573ffffffffffffffffffffffffffffffffffffffff169060200190929190505050610dc2565b604051808215151515815260200191505060405180910390f35b34801561044357600080fd5b5061044c6110c7565b604051808273ffffffffffffffffffffffffffffffffffffffff1673ffffffffffffffffffffffffffffffffffffffff16815260200191505060405180910390f35b600080600260003373ffffffffffffffffffffffffffffffffffffffff1673ffffffffffffffffffffffffffffffffffffffff16815260200190815260200160002060008473ffffffffffffffffffffffffffffffffffffffff1673ffffffffffffffffffffffffffffffffffffffff1681526020019081526020016000205411610581576040517f08c379a00000000000000000000000000000000000000000000000000000000081526004018080602001828103825260158152602001807f70616972696e6720646f65736e2774206578697374000000000000000000000081525060200191505060405180910390fd5b600260003373ffffffffffffffffffffffffffffffffffffffff1673ffffffffffffffffffffffffffffffffffffffff16815260200190815260200160002060008373ffffffffffffffffffffffffffffffffffffffff1673ffffffffffffffffffffffffffffffffffffffff168152602001908152602001600020546000808473ffffffffffffffffffffffffffffffffffffffff1673ffffffffffffffffffffffffffffffffffffffff168152602001908152602001600020600082825401925050819055506000600260003373ffffffffffffffffffffffffffffffffffffffff1673ffffffffffffffffffffffffffffffffffffffff16815260200190815260200160002060008473ffffffffffffffffffffffffffffffffffffffff1673ffffffffffffffffffffffffffffffffffffffff1681526020019081526020016000208190555060019050919050565b6000600360009054906101000a900473ffffffffffffffffffffffffffffffffffffffff1673ffffffffffffffffffffffffffffffffffffffff163373ffffffffffffffffffffffffffffffffffffffff1614610799576040517f08c379a000000000000000000000000000000000000000000000000000000000815260040180806020018281038252601a8152602001807f63616c6c61626c65206f6e6c79206279207468652061646d696e00000000000081525060200191505060405180910390fd5b6001915081156108f357600260008573ffffffffffffffffffffffffffffffffffffffff1673ffffffffffffffffffffffffffffffffffffffff16815260200190815260200160002060008473ffffffffffffffffffffffffffffffffffffffff1673ffffffffffffffffffffffffffffffffffffffff16815260200190815260200160002054600160008673ffffffffffffffffffffffffffffffffffffffff1673ffffffffffffffffffffffffffffffffffffffff168152602001908152602001600020600082825401925050819055506000600260008673ffffffffffffffffffffffffffffffffffffffff1673ffffffffffffffffffffffffffffffffffffffff16815260200190815260200160002060008573ffffffffffffffffffffffffffffffffffffffff1673ffffffffffffffffffffffffffffffffffffffff16815260200190815260200160002081905550610a3e565b600260008573ffffffffffffffffffffffffffffffffffffffff1673ffffffffffffffffffffffffffffffffffffffff16815260200190815260200160002060008473ffffffffffffffffffffffffffffffffffffffff1673ffffffffffffffffffffffffffffffffffffffff168152602001908152602001600020546000808573ffffffffffffffffffffffffffffffffffffffff1673ffffffffffffffffffffffffffffffffffffffff168152602001908152602001600020600082825401925050819055506000600260008673ffffffffffffffffffffffffffffffffffffffff1673ffffffffffffffffffffffffffffffffffffffff16815260200190815260200160002060008573ffffffffffffffffffffffffffffffffffffffff1673ffffffffffffffffffffffffffffffffffffffff168152602001908152602001600020819055505b9392505050565b6000806000803373ffffffffffffffffffffffffffffffffffffffff1673ffffffffffffffffffffffffffffffffffffffff1681526020019081526020016000205411610add576040517f08c379a00000000000000000000000000000000000000000000000000000000081526004018080602001828103825260268152602001806111306026913960400191505060405180910390fd5b816000803373ffffffffffffffffffffffffffffffffffffffff1673ffffffffffffffffffffffffffffffffffffffff168152602001908152602001600020541015610b74576040517f08c379a00000000000000000000000000000000000000000000000000000000081526004018080602001828103825260298152602001806111566029913960400191505060405180910390fd5b816000803373ffffffffffffffffffffffffffffffffffffffff1673ffffffffffffffffffffffffffffffffffffffff1681526020019081526020016000206000828254039250508190555081600160003373ffffffffffffffffffffffffffffffffffffffff1673ffffffffffffffffffffffffffffffffffffffff1681526020019081526020016000206000828254019250508190555060019050919050565b60006020528060005260406000206000915090505481565b6000806000808473ffffffffffffffffffffffffffffffffffffffff1673ffffffffffffffffffffffffffffffffffffffff16815260200190815260200160002054600160008573ffffffffffffffffffffffffffffffffffffffff1673ffffffffffffffffffffffffffffffffffffffff1681526020019081526020016000205491509150915091565b60016020528060005260406000206000915090505481565b6000813414610d48576040517f08c379a000000000000000000000000000000000000000000000000000000000815260040180806020018281038252600f8152602001807f696e76616c696420616d6f756e7421000000000000000000000000000000000081525060200191505060405180910390fd5b346000803373ffffffffffffffffffffffffffffffffffffffff1673ffffffffffffffffffffffffffffffffffffffff1681526020019081526020016000206000828254019250508190555060019050919050565b6002602052816000526040600020602052806000526040600020600091509150505481565b60003373ffffffffffffffffffffffffffffffffffffffff168273ffffffffffffffffffffffffffffffffffffffff161415610e66576040517f08c379a000000000000000000000000000000000000000000000000000000000815260040180806020018281038252601e8152602001807f596f752063616e27742062757920796f7572206f776e20746f6b656e7321000081525060200191505060405180910390fd5b34600160008473ffffffffffffffffffffffffffffffffffffffff1673ffffffffffffffffffffffffffffffffffffffff168152602001908152602001600020541015610f1b576040517f08c379a000000000000000000000000000000000000000000000000000000000815260040180806020018281038252601d8152602001807f696e73756666696369656e742073656c6c657220657468206c6566742100000081525060200191505060405180910390fd5b6000600260008473ffffffffffffffffffffffffffffffffffffffff1673ffffffffffffffffffffffffffffffffffffffff16815260200190815260200160002060003373ffffffffffffffffffffffffffffffffffffffff1673ffffffffffffffffffffffffffffffffffffffff1681526020019081526020016000205414610ff0576040517f08c379a00000000000000000000000000000000000000000000000000000000081526004018080602001828103825260428152602001806110ee6042913960600191505060405180910390fd5b34600260008473ffffffffffffffffffffffffffffffffffffffff1673ffffffffffffffffffffffffffffffffffffffff16815260200190815260200160002060003373ffffffffffffffffffffffffffffffffffffffff1673ffffffffffffffffffffffffffffffffffffffff1681526020019081526020016000208190555034600160008473ffffffffffffffffffffffffffffffffffffffff1673ffffffffffffffffffffffffffffffffffffffff1681526020019081526020016000206000828254039250508190555060019050919050565b600360009054906101000a900473ffffffffffffffffffffffffffffffffffffffff168156fe796f752063616e6e6f74206275792066726f6d2073656c6c657220756e74696c20696e697469616c207472616e73616374696f6e20697320636f6d706c6574656421596f752068617665206e6f742070757420616e792065746820666f722073616c652079657421596f75206861766520616e20696e73756666696369656e742062616c616e636520666f722073616c65a265627a7a723158206647017608b0b0880cca385ae5756b247e9d10ffec4f0b1ccf6b42a10253b14564736f6c63430005100032",
  "source": "// SPDX-License-Identifier: MIT\r\npragma solidity >=0.4.22 <0.9.0;\r\n\r\n/**\r\n    1. set a deefault nwtwork ie main/rinkeby etc.\r\n    2. set admin transfer.\r\n    6. admin profit.\r\n    7. transaction initiated\r\n    8. AMT INTO THE CONTRACT MUST BE EQUAL TO MSG.VALUE\r\n */\r\n\r\ncontract Exchange {\r\n    mapping(address => uint256) public balanceOf;\r\n    mapping(address => uint256) public upForSale;\r\n    mapping(address => mapping(address => uint256)) public transaction;\r\n\r\n    address public admin;\r\n\r\n    event Sale(address indexed _from, uint256 indexed _amt);\r\n\r\n    constructor() public {\r\n        admin = msg.sender;\r\n    }\r\n\r\n    // only payable function\r\n    function deposit(uint256 _amt) public payable returns (bool) {\r\n        // use msg.value here for checks\r\n        require(msg.value == _amt, \"invalid amount!\");\r\n        balanceOf[msg.sender] += msg.value;\r\n        return true;\r\n    }\r\n\r\n    // !we need to specify the rates of the seller, some how!\r\n    function forSale(uint256 _amt) public payable returns (bool) {\r\n        // use msg.value and msg.sender for mapping here too.\r\n\r\n        // check that the person exists in the balanceOf mapping\r\n        require(\r\n            balanceOf[msg.sender] > 0,\r\n            \"You have not put any eth for sale yet!\"\r\n        );\r\n        require(\r\n            balanceOf[msg.sender] >= _amt,\r\n            \"You have an insufficient balance for sale\"\r\n        );\r\n\r\n        balanceOf[msg.sender] -= _amt;\r\n        upForSale[msg.sender] += _amt;\r\n\r\n        // add an event here.\r\n        // emit Sale(msg.sender, _amt);\r\n        return true;\r\n    }\r\n\r\n    // mapping the amount you want to buy to a wallet\r\n    // use msg.sender here instead.\r\n\r\n    function buy(address _owner) public payable returns (bool) {\r\n        // 2. You can't buy from a seller until initial transaction is concluded.\r\n        // check this ...\r\n        require(_owner != msg.sender, \"You can't buy your own tokens!\");\r\n\r\n        require(\r\n            upForSale[_owner] >= msg.value,\r\n            \"insufficient seller eth left!\"\r\n        );\r\n\r\n        require(\r\n            transaction[_owner][msg.sender] == 0,\r\n            \"you cannot buy from seller until initial transaction is completed!\"\r\n        );\r\n\r\n        transaction[_owner][msg.sender] = msg.value;\r\n        upForSale[_owner] -= msg.value;\r\n\r\n        // remit event...\r\n        return true;\r\n    }\r\n\r\n    // realise value. only by the seller\r\n    function release(address _buyer) public returns (bool) {\r\n        //check that there is such a pairing.\r\n        require(transaction[msg.sender][_buyer] > 0, \"pairing doesn't exist\");\r\n        balanceOf[_buyer] += transaction[msg.sender][_buyer];\r\n        // or transfer directly to the buyer's account.\r\n        /**\r\n            address(this).transfer(_buyer, transaction[msg.sender][_buyer]);\r\n         */\r\n        transaction[msg.sender][_buyer] = 0;\r\n\r\n        return true;\r\n    }\r\n\r\n    function resolveConflict(\r\n        address _owner,\r\n        address _buyer,\r\n        bool status\r\n    ) public returns (bool) {\r\n        require(msg.sender == admin, \"callable only by the admin\");\r\n        //true : resolve to _owner\r\n        // false : resolve to _buyer\r\n        if (status = true) {\r\n            upForSale[_owner] += transaction[_owner][_buyer];\r\n            transaction[_owner][_buyer] = 0;\r\n        } else {\r\n            balanceOf[_buyer] += transaction[_owner][_buyer];\r\n            transaction[_owner][_buyer] = 0;\r\n        }\r\n\r\n        // !problem : what happens when a user is mapped to another several times?\r\n        // solution : don't allow pairing if account already exists together.\r\n    }\r\n\r\n    // a view function that get the wallet balaance in the contract\r\n    function myBalance(address _owner) public view returns (uint256, uint256) {\r\n        return (balanceOf[_owner], upForSale[_owner]);\r\n    }\r\n\r\n    // fetch all the transactions\r\n\r\n    /**\r\n        other functions : transfer my eth out of the contract. via the balanceOf\r\n     */\r\n\r\n    // fix - contract's profit.\r\n    // create a profit modifier - connect to the deployers account\r\n\r\n    // withdraw to account. i.e transfer out from contract using address(this)\r\n\r\n    // admin cancels a transaction btw two people.\r\n\r\n    // use events where necessary...\r\n\r\n    /**\r\n        other functions\r\n            - trade other erc20 tokens for money\r\n            - trade other erc20 for eth, and vice versa.\r\n     */\r\n}\r\n",
  "sourcePath": "C:/Users/mayor/Desktop/cryp/project2/src/eth/contracts/Exchange.sol",
  "compiler": {
    "name": "solc",
    "version": "0.5.16+commit.9c3226ce.Emscripten.clang"
  },
  "schemaVersion": "3.3.2",
  "updatedAt": "2021-03-27T11:24:42.211Z",
  "networkType": "ethereum",
  "devdoc": {
    "methods": {}
  },
  "userdoc": {
    "methods": {},
    "notice": "1. set a deefault nwtwork ie main/rinkeby etc. 2. set admin transfer. 6. admin profit. 7. transaction initiated 8. AMT INTO THE CONTRACT MUST BE EQUAL TO MSG.VALUE"
  }
}